:100000000C9424050C945C1B0C946B050C946B05F0
:100010000C946B050C946B050C946B050C946B05A0
:100020000C946B050C946B050C94302F0C940230DF
:100030000C9490290C946B050C946B050C946B0537
:100040000C946B050C946B050C946B050C946B0570
:100050000C946B050C94DD290C946B050C946B05CA
:100060000C946B050C946B050C946B050C946B0550
:100070000C946B050C946B050C946B050C946B0540
:100080000C946B050C946B050C946B050C946B0530
:100090000C946B050C946B050C946B050C946B0520
:1000A0000C946B050C946B050C946B0518151B15C3
:1000B000201527152C15311536153B1540154515FE
:1000C0004A154F155115541557155A155D156015DC
:1000D000621567156B1F6B1F9D1F9D1FEA1F1E2159
:1000E0001E211E2108209D20AE20AE200E211E21A3
:1000F0001E211721BA21BA21CC21CC21C321CC2128
:10010000CC21CC21BA21BA21C821CC21CC21C821B3
:100110006F3096308E3196308E31E23005318E312F
:100120005C316B314C004A004B004E004D0000002A
:10013000290014001A00090013000A002B00040013
:100140001500160017000700E1001D001B00060047
:100150001900050000000000E3002C642861000085
:100160002A0000004F0052005100500031003300BF
:100170001C0018000F000D00340012000C000800D5
:1001800011000B00E50038003700360010000E00AB
:100190000000000000000000015802584C00000060
:1001A000000000000000000029002E022D002E009B
:1001B0002D022F022B001E001F0020002100220014
:1001C000E1001E021F0220022102220200000000A4
:1001D00001000100010000002A00000000000000F2
:1001E00000000000310030002F00270226023002FC
:1001F000340027002600250024002300E5003502F6
:100200003500250224022302000000000000000047
:100210000100000027001E001F0020002100220016
:10022000290014001A000800150017002B00040014
:100230001600070009000A00E1001D001B0006006F
:100240001900050000000000E200E00028002C007A
:100250003F003E003D003C003B003A0045004400AA
:100260004300420041004000C55CC95CCF5C000017
:1002700000004600C25CCA5CD45C000000000000C4
:10028000000000000000000000000100444542554D
:10029000473A2064697361626C65642E0A004445C4
:1002A0004255473A20656E61626C65642E0A000A09
:1002B0000025303862003A200025303258000A729A
:1002C0002F632030313233343536370A007267629B
:1002D0006C6967687420616E696D6174696F6E2006
:1002E0007469636B207265706F727420746F207311
:1002F0006C6176650A007267626C69676874207465
:10030000696D65722064697361626C652E0A0072A2
:1003100067626C696768742074696D657220656EC8
:1003200061626C65642E0A007267626C696768744A
:100330002073657420687376205B4E4F454550529C
:100340004F4D5D3A2025752C25752C25750A0072B8
:1003500067626C69676874207365742068737620BF
:100360005B454550524F4D5D3A2025752C25752C27
:1003700025750A007267626C69676874207261692A
:100380006E626F7720736574206873763A202564F7
:100390002C25642C25642C25750A007267626C6913
:1003A0006768742064697361626C65205B4E4F45B9
:1003B0004550524F4D5D3A207267626C69676874B0
:1003C0005F636F6E6669672E656E61626C65203D66
:1003D0002025750A007267626C6967687420646919
:1003E0007361626C65205B454550524F4D5D3A200C
:1003F0007267626C696768745F636F6E6669672EA7
:10040000656E61626C65203D2025750A0072676229
:100410006C6967687420656E61626C65205B454538
:1004200050524F4D5D3A207267626C696768745F25
:10043000636F6E6669672E656E61626C65203D2034
:1004400025750A007267626C6967687420746F674B
:10045000676C65205B454550524F4D5D3A20726791
:10046000626C696768745F636F6E6669672E656E3C
:1004700061626C65203D2025750A007267626C69B7
:10048000676874206D6F6465205B4E4F4545505220
:100490004F4D5D3A2025750A007267626C69676886
:1004A00074206D6F6465205B454550524F4D5D3A39
:1004B0002025750A007267626C696768745F696EEF
:1004C0006974207267626C696768745F636F6E66D7
:1004D00069672E6D6F6465203D20302E205772694C
:1004E00074652064656661756C742076616C7565F1
:1004F0007320746F20454550524F4D2E0A0072678D
:10050000626C696768745F696E6974206565636FA2
:100510006E666967206973206E6F7420656E616214
:100520006C65642E0A007267626C696768745F6943
:100530006E6974207374617274210A007267626C50
:10054000696768745F696E69742063616C6C656467
:100550002E0A007267626C696768745F636F6E660B
:1005600069672E7370656564203D2025640A0072FA
:1005700067626C696768745F636F6E6669672E7621
:10058000616C203D2025640A007267626C696768AF
:10059000745F636F6E6669672E736174203D2025FA
:1005A000640A007267626C696768745F636F6E6685
:1005B00069672E687565203D2025640A00726768AA
:1005C0006C696768745F636F6E6669672E6D6F64D0
:1005D00065203D2025640A007267626C6967687453
:1005E0005F636F6E6669672E656E61626C65203D44
:1005F0002025640A007267626C696768745F636FC4
:100600006E66696720454550524F4D3A0A003219CF
:100610000A00047F3F1F643214643214783C1E1EAB
:10062000140A052223252628292A2C2D2F3032337F
:100630003536383A3B3D3E4042434547494A4C4EA9
:100640005051535557595A5C5E6062646668696BD5
:100650006D6F71737577797B7D7F81838587898ADB
:100660008C8E90929496989A9C9E9FA1A3A5A7A8E1
:10067000AAACAEAFB1B3B4B6B8B9BBBCBEBFC1C211
:10068000C3C5C6C7C9CACBCCCDCED0D1D2D2D3D4A4
:10069000D5D6D7D7D8D9D9DADADBDBDBDCDCDCDCC2
:1006A000DCDDDDDDDDDCDCDCDCDCDBDBDBDADAD990
:1006B000D9D8D7D7D6D5D4D3D2D2D1D0CECDCCCB12
:1006C000CAC9C7C6C5C3C2C1BFBEBCBBB9B8B6B430
:1006D000B3B1AFAEACAAA8A7A5A3A19F9E9C9A98C0
:1006E000969492908E8C8A89878583817F7D7B7991
:1006F000777573716F6D6B6968666462605E5C5A72
:100700005957555351504E4C4A4947454342403E34
:100710003D3B3A3836353332302F2D2C2A292826C6
:10072000252322FFAA7F55406261636B6C6967686D
:100730007420737465703A2025750A006261636BDA
:100740006C696768742064697361626C650A006231
:1007500061636B6C6967687420656E61626C650AC1
:10076000006261636B6C6967687420746F67676CA3
:10077000653A2025750A006261636B6C696768746D
:100780002064656372656173653A2025750A0062AD
:1007900061636B6C6967687420696E63726561730D
:1007A000653A2025750A00000101010101010101DE
:1007B0000102020202020202020203030303030314
:1007C00003030404040404040405050505050606E2
:1007D00006060607070707070808080809090909A0
:1007E0000A0A0A0B0B0B0C0C0C0D0D0D0E0E0E0F46
:1007F0000F0F1010111111121213131414151516D6
:10080000161717181819191A1A1B1B1C1D1D1E1E46
:100810001F20202122222324242526262728292997
:100820002A2B2C2D2D2E2F303132323334353637C2
:1008300038393A3B3C3D3E3F4041424344454647C0
:1008400048494A4C4D4E4F50515354555658595A99
:100850005B5D5E5F616264656668696B6C6D6F703D
:1008600072737577787A7B7D7E8082838587888AAC
:100870008C8E8F91939596989A9C9EA0A2A3A5A7E3
:10088000A9ABADAFB1B3B5B7BABCBEC0C2C4C6C9DF
:10089000CBCDCFD1D4D6D8DBDDDFE2E4E7E9EBEE98
:1008A000F0F3F5F8FAFDFF0A002530325820006B0E
:1008B0006579626F6172645F7265706F72743A20FD
:1008C000000A0025303258006B6579626F617264EE
:1008D0005F7365745F6C65643A20005B735D004B09
:1008E0006579626F6172642073746172742E0A009C
:1008F0005B575D005B535D005B525D005B445D00D8
:100900005B435D0004033000000026034B006500DC
:100910006500620069006F002000490072006900F4
:10092000730020005200650076002E002000340085
:1009300000000E034B0065006500620069006F0057
:1009400000000403090409025B00030100A0FA0986
:1009500004000001030101000921110100012240EE
:10096000000705810308000A0904010001030000D3
:100970000009211101000122320007058203200035
:100980000A0904020002030000000921110100010C
:10099000222200070583032000010705030320002E
:1009A00001120110010000000810CB5642000401A2
:1009B0000203010631FF0974A1010975150026FF24
:1009C000009520750881020976150026FF00952004
:1009D00075089102C005010980A101850319012A4A
:1009E000B700150126B700950175108100C0050CF0
:1009F0000901A101850419012AA002150126A002FE
:100A0000950175108100C005010906A101050719AE
:100A1000E029E7150025019508750181029501750A
:100A20000881010507190029FF150026FF0095061A
:100A300075088100050819012905950575019102C0
:100A4000950175039101C00011241FBECFEFDAE0BC
:100A5000DEBFCDBF04B603FE27C080915303909143
:100A60005403A0915503B09156038730904BA74093
:100A7000B04BD1F4109253031092540310925503CB
:100A80001092560314BE84B7877F84BF0FB6F894C4
:100A9000A89580916000886180936000109260004A
:100AA0000FBEE0E0F8E3099511E0A0E0B1E0EEE56B
:100AB000F6E602C005900D92A83FB107D9F723E0F2
:100AC000A8EFB1E001C01D92A335B207E1F70E9483
:100AD000562C0C942D330C940000FF93EF93E0916F
:100AE000F801F091F901309709F00995EF91FF9124
:100AF0000895FC018591803011F0EFDFFBCF089560
:100B0000FF27E0E230E247FF0CC0419597FF09C0A4
:100B1000EDE26095709580959095611D711D811D28
:100B2000911D27FF02C0219530E350E2AA27660FEE
:100B3000771F881F991FAA1FA41710F0A41B639585
:100B40005A95A9F7AA3008F0A95FA05DAF93F39575
:100B5000611571058105910541F7ED3211F4EF93AF
:100B6000F395F21718F43F93F395FBCF8F91B5DF10
:100B7000FA95E1F70895E991F9918591803021F096
:100B8000853219F0AADFF9CF089520E0E894559155
:100B90005532C1F3503311F4689455915A3348F4E7
:100BA000505390F3220F022E220F220F200D250FFB
:100BB000F4CF0EF4219589919991533619F3533757
:100BC00029F1533559F1BC0188279927E8945C36FF
:100BD00021F48991999168945591543639F446EFEE
:100BE0007EF077FF0DC08FEF9FEF0AC055374AE0C8
:100BF00039F0583540E121F0523642E009F00895CD
:100C0000FF93EF937DDFEF91FF91B7CFFF93EF93CA
:100C1000FC0181918030B9F360DFFBCFFF93EF934C
:100C200068DFF1CFDF93CF93CDB7DEB72596A3DF93
:100C3000CF91DF9108950E940B1683E00E94BB16AE
:100C40000E94D4124FEF6FEF80E00E94620F8BE0A2
:100C50000E94D11260E070E0CB010E9478280C94D1
:100C6000842881E0089581E008950C943306089566
:100C70000C9437061F93CF93DF9300D000D01F92C0
:100C8000CDB7DEB749835A836B8330917A0289816D
:100C90009A81311114C0662359F0222349F00E9431
:100CA000F526182F682F89819A810E949C2603C0FF
:100CB0000E94C826182F69817A81812F04C00E9462
:100CC000F52669817A810F900F900F900F900F9009
:100CD000DF91CF911F910C941707FC01262F4081C3
:100CE00051816281738184810C943A06CF93DF93A2
:100CF000EC0160E00E946D06BE01DF91CF910C9483
:100D000038060E943E28811102C00E94E0280E94FD
:100D100058170C9472090C946E0908950C948D0662
:100D200081E008950C949006CF93C82F0E948E0600
:100D30008C2F0E949206CF91089508950E94A821B9
:100D40000E949D062FEF84E39CE02150804090405C
:100D5000E1F700C000000C94032A0F931F93CF9378
:100D6000DF93EC0161E00E946D068C01BE010E94E0
:100D70003506882309F450C0BE01C8010E94C1167F
:100D8000882309F449C0BE01C8010E940F198823B5
:100D900009F442C0BE01C8010E9450198823E1F144
:100DA000BE01C8010E947B1A8823B1F1BE01C801AF
:100DB0000E940215882381F18A81882331F1013054
:100DC0008CE5180751F00E3D8CE51807D9F0011598
:100DD0001C45D9F40E949E061FC08091F002C82FC6
:100DE000C095C170C0FB80F98093F002CC2329F03C
:100DF0008EE992E00E9479050FC08CE892E00E9493
:100E000079050BC00E94E02807C0CE01DF91CF9189
:100E10001F910F910C943106C0E08C2FDF91CF9180
:100E20001F910F91089580E090E0089508952CE3BC
:100E3000829FC0011124FC0126E0729FE00DF11D8C
:100E40001124E60FF11DEE0FFF1FEC5DFE4F8591A3
:100E500094910895880F991FFC01E155FD4F8591EC
:100E600094910895CF93DF930E9417070E9444083E
:100E7000EC018115904508F043C0C11580E4D80706
:100E800008F0CBC0C03ED10528F5C03CD10508F024
:100E9000B3C0C83AD10578F4C53AD10508F0A4C06A
:100EA000C130D10509F4ECC008F4E8C0C430D10564
:100EB00008F0E6C0E3C0CF3BD10508F0DFC0C85A58
:100EC000D0E0CC0FDD1FC45BDE4F0990D881C02D70
:100ED000D464D6C0C11590E2D90750F4C11521E001
:100EE000D20708F0CDC0C83ED10508F4C9C0C6C0BD
:100EF000C11580E3D80708F086C0CE019F707FC07F
:100F0000C11595E5D90708F043C0C11524E5D207FE
:100F100008F09AC0C11582E5D80708F5C11591E51A
:100F2000D90708F07DC0CE0174E0969587957A9533
:100F3000E1F783709C2F937021E030E002C0220F14
:100F4000331F9A95E2F73C68382BCF70C695C6954B
:100F500080E2C89FE0011124C22BD32B91C09E01D7
:100F6000237033278C2F86958695C115D34508F0BD
:100F70005CC0C1E0D0E002C0CC0FDD1F2A95E2F7D3
:100F800020E2829FC0011124C82BD92BDC6878C0D5
:100F9000C11529E5D207A0F4C11588E5D80708F0E6
:100FA00058C0C11596E5D90708F068C08C2F0E947B
:100FB000D8088F71C82FD0E0DC2FCC27D06260C05A
:100FC000C1152AE5D20708F449C0CE019056811513
:100FD000904208F053C08D2F8F710E94D808DD27F2
:100FE000D0628F71D82B4CC0C55AD0E0C658DE4FA6
:100FF000C881D0E0D06444C0CE01805C91090E94D9
:101000002A07EC013DC0CE019927D3FF03C0EC01B4
:10101000D86C36C0EC01D06C33C0DF70D06A30C001
:10102000DC2FCC27C16FD06A2BC0C1E0D0E002C05A
:10103000CC0FDD1F2A95E2F720E2829FC001112428
:10104000C82BD92BDA681CC0DC2FCC27C46FD06A20
:1010500017C0DC2FCC27C06FD06A12C08C2F8F70C6
:101060000E94D80894E0D695C7959A95E1F7CF707D
:10107000D0E0DC2FCC27D069C82B02C0C0E0D0E084
:10108000CE01DF91CF9108958238910569F1B0F4D6
:101090008133910509F46DC048F48932910509F452
:1010A00063C08A32910509F469C0089585339105BA
:1010B00009F455C089339105B9F00895833E91052F
:1010C00069F138F4803E9105B1F0823E910509F155
:1010D0000895863E9105A9F1873E9105B9F1843EB8
:1010E000910509F064C023C02091440320FD4FC046
:1010F00021FD4DC008958091440380FD44C080913E
:10110000450380FF44C08091440384FD42C083EEC8
:101110004DC08091440382FF38C0F5CF80914403D5
:1011200082FD33C08091450380FD31C0ECCF8091BA
:10113000450381FF32C08091440384FD2AC087EEBD
:1011400035C08091440383FF26C0F5CF80914403CE
:1011500083FD21C08091450381FD1FC0ECCF8091AC
:10116000440385FD1CC01DC08091440385FD19C04A
:1011700016C08091440386FD16C017C080914403B9
:1011800086FD13C010C089E311C082EE0FC080EE4F
:101190000DC080E00BC086EE09C084EE07C089E276
:1011A00005C085E303C08AE201C081E390E00895B1
:1011B0009091440392FF0DC0282F2871283019F414
:1011C000877F846006C0282F2471243011F48B7F20
:1011D000886093FF0DC0282F2871283119F4877E6D
:1011E000846106C0282F2471243111F48B7E88611C
:1011F0002091450320FF0DC0382F3871383019F485
:10120000877F816006C0382F3171313011F48E7FB5
:10121000886021FF0DC0282F2871283119F4877E9E
:10122000816106C0282F2171213111F48E7E8861E1
:1012300094FD877E0895E82FF0E0E65FFC4F808103
:101240000895CF92DF92EF92FF920F931F93CF9367
:10125000DF938EEB92E00E9479058AE0E82E83E02E
:10126000F82EC0E0D0E099EBC92E92E0D92E01EB28
:1012700012E0DF93CF93DF92CF920E94120686EBAB
:1012800092E00E947905F70181917F010E942C284C
:101290001F928F931F930F930E9412068FEA92E082
:1012A0000E94790521968DB79EB708960FB6F894DF
:1012B0009EBF0FBE8DBFCA30D105D9F6DF91CF9149
:1012C0001F910F91FF90EF90DF90CF90089580EAEB
:1012D0008A95F1F7089508950C946B090C946C09A4
:1012E0000C946B090C94700908950F931F93CF937E
:1012F000DF93CDB7DEB760970FB6F894DEBF0FBEB1
:10130000CDBF0E94450B8091140181112DC0FE01BB
:1013100031968AE0DF011D928A95E9F781E389839E
:1013200082E38A8382E98B8381EF8C8384EF8D83D0
:10133000AAE0B1E0CE010B9621912D938E179F0765
:10134000D9F726E0E6E4F1E0DE011B9601900D926C
:101350002A95E1F7FC01A4E0B1E0CE01419621918C
:101360002D938E179F07D9F780911401811102C028
:1013700095E001C090E09093150385E0891B809370
:101380001403AAE0B1E04FE051E061E070E08D911C
:10139000E82FE295EF70F0E021A18F708B0102C081
:1013A000000F111F8A95E2F7C801902F90959223A4
:1013B00091A392A1892B82A34A175B0741F7A4E06E
:1013C000B1E04AE051E061E070E08D91E82FE295F4
:1013D000EF70F0E021A18F708B0102C0000F111F90
:1013E0008A95E2F7C801902F9095922391A392A13C
:1013F000892B82A34A175B0741F7E0E0F3E0AAE0FC
:10140000B3E08AE093E011921D928E179F07D9F7FF
:1014100085E00E94EA0A0E94810660960FB6F89461
:10142000DEBF0FBECDBFDF91CF911F910F910C9406
:10143000590B0E94280B882309F18091140390E036
:10144000865F9C4F0E94890B811114C08091FA0124
:101450008F5F8093FA01863078F0E0911403F0E01A
:10146000E65FFC4F80E090E0119201968530910597
:10147000D9F702C01092FA010C948B0680911503E3
:1014800090E0865F9C4F0E94B60B0C947409BF924B
:10149000CF92DF92EF92FF920F931F93CF93DF9340
:1014A000CAE0D1E080E0C82E83E0D82E9FE0E92E8C
:1014B00091E0F92EB12C01E010E08881E82FE2954F
:1014C000EF70F0E021A18F70A80102C0440F551FFA
:1014D0008A95E2F7CA01822B81A38881E82FE295E1
:1014E000EF70F0E092A18F70980101C0220F8A95F1
:1014F000EAF7822F8095892382A30E946709E4E09E
:10150000F1E040E050E020E03191A32FA295AF70D0
:10151000B0E090968C9190E03F7002C095958795D1
:101520003A95E2F780FD07C0802F042E01C0880F96
:101530000A94EAF701C080E0282B4F5F5F4F4630E6
:10154000510511F78881E82FE295EF70F0E091A145
:101550008F70A80101C0440F8A95EAF7842F809507
:10156000892381A38991E82FE295EF70F0E032A101
:101570008F70A80102C0440F551F8A95E2F7CA0177
:10158000832B82A3F6018081281719F0208381E044
:1015900001C080E0B82AFFEFCF1ADF0AEC16FD0683
:1015A00009F08BCF6091150370E0665F7C4F2B2DA7
:1015B00045E080E093E00E94EB0A0E94190A8B2D1F
:1015C000DF91CF911F910F91FF90EF90DF90CF901F
:1015D000BF9008950895FF920F931F93CF93DF93C9
:1015E0008C01F62ED72FC42F222349F081E080935F
:1015F000FD010E94C2299093FC018093FB01809120
:10160000FD018823C1F08091FB019091FC010E94B3
:10161000CE29069780F0EF2DFD2FD8014C2F50E0FA
:10162000CD01801B910B841795071CF48D9181933C
:10163000F7CF1092FD01DF91CF911F910F91FF9095
:10164000089555985D9889B185FB882780F908959C
:101650008091FE01811112C08091D8008061809339
:10166000D8008AE18A95F1F700C08091D90080FD09
:1016700002C082E001C081E08093FE0181E0909190
:10168000FE01913009F080E008950E94210B8093C3
:1016900014018091140166E0882311F080E001C0FC
:1016A00086E00E945F0C0E94280B81110C94600B55
:1016B00008950E94280B811102C00C94660B0895B6
:1016C00062E070E085E191E00C940A1B62E070E05A
:1016D00085E191E00C94131B0E94FD11882361F0B9
:1016E00088E092E00E94031281E090E00E94EC1BEF
:1016F000892B11F40C940012089580910702883010
:1017000039F460E088E092E00E94D2131092070260
:101710000895CF93DF93D82FC92F0E946C0B80E0E0
:1017200090E00E94EC1B892BE9F4ED2FFC2F80E068
:1017300090E0DC01AF5FBD4F2C9121930196853085
:101740009105B9F70E947115882319F00E9475154B
:1017500001C080E08093000286E092E00E94681859
:1017600081E001C080E0DF91CF910895CF93DF93B6
:10177000D82FC92F0E947D0BED2FFC2F80E090E029
:101780002191DC01AF5FBD4F2C930196853091050F
:10179000B9F7809100020E94F61686E092E0DF9190
:1017A000CF910C945F18EF92FF920F931F93CF93FA
:1017B000DF93F62E472FE82FF0E0711106C0E955B0
:1017C000F84F6491762F862F72C0272F30E0E955AD
:1017D000F84FE4910E2F10E056E0659FC0011124F0
:1017E000CFEFD0E0BE010E94EB315BEA5603C001AF
:1017F000579F900D11248F0D911D8F0D911D982FC6
:10180000990F890F7E01E21AF30AE09ED001E19E52
:10181000B00DF09EB00D1124489FA0011124452F5A
:1018200055277E01E41AF50AE09EA001E19E500DC5
:10183000F09E500D11247E01E81AF108E29EC001CD
:10184000E39E900DF29E900D1124892F9927C81BBD
:10185000D90BC09FC001C19F900DD09F900D112446
:101860006230710591F048F461157105E1F0613065
:101870007105A9F48B2F752F19C06430710561F0C3
:1018800038F06630710579F00AC0892F7B2F0EC0C1
:101890008E2F7B2FE52F0AC08E2F792F02C0852F28
:1018A0007E2FEB2F03C08B2F7E2FE92F6E2FDF9122
:1018B000CF911F910F91FF90EF9008950895E7E267
:1018C000F1E0808361830895CF93DF93762FE90160
:1018D000682F842F0E94D30B798368838A83DF91DA
:1018E000CF91089580911603282F269530E0211579
:1018F000310519F48170826005C02B32310524F066
:101900008170846580931603089588E090E00C94BC
:10191000C632CF92DF92EF92FF926B017C010E9460
:10192000720CB701A60188E090E0FF90EF90DF9085
:10193000CF900C94E432E6E1F3E083E080831182FF
:101940008FEF828383831482A9E5B2E012968C9193
:101950001297836012968C9360817181828193814A
:101960000C94890C8091F00280FF08C085EF95E00F
:101970009F938F930E9412060F900F908091F00218
:1019800080FF0FC08091160381701F928F9388EDA6
:1019900095E09F938F930E9412060F900F900F90E7
:1019A0000F908091F00280FF0FC080911603869502
:1019B0001F928F938DEB95E09F938F930E94120659
:1019C0000F900F900F900F908091F00280FF0EC04B
:1019D000809117031F928F9383EA95E09F938F93D3
:1019E0000E9412060F900F900F900F908091F002BE
:1019F00080FF0EC0809118031F928F9389E895E0B5
:101A00009F938F930E9412060F900F900F900F904C
:101A10008091F00280FF0EC0809119031F928F9376
:101A20008FE695E09F938F930E9412060F900F9080
:101A30000F900F908091F00280FF0EC080911A03EA
:101A40001F928F9383E595E09F938F930E941206D8
:101A50000F900F900F900F9008958091160380FFC4
:101A600002C08695089580E0089580911A0383301E
:101A700018F48F5F80931A03609116037091170317
:101A800080911803909119030C94890C80911A038A
:101A9000882319F0815080931A0360911603709186
:101AA000170380911803909119030C94890C70E02E
:101AB0000C946817609128018091160380FF0AC07A
:101AC0008091270123E0829FC0011124855E9C4FF5
:101AD0000C94570D8091290190912A01891780F764
:101AE000E82FF0E09F01220F331FE20FF31FE55EA6
:101AF000FC4F1182108212828F5FF0CF90911603FB
:101B000090FF16C09091290120912A01921770F43C
:101B1000E92FF0E0DF01AA0FBB1FEA0FFB1FE55E14
:101B2000FC4F8183608342839F5FF0CF0C945A0DFA
:101B30000895CF93DF9300D01F92CDB7DEB7909179
:101B4000160390FF0AC09E012F5F3F4F0E94640C56
:101B50004B8169818A810E947E0D0F900F900F90BA
:101B6000DF91CF910895CF93DF93EC01EC81F0E00A
:101B7000ED5DF94F4491E6E1F3E0628181810E94DD
:101B8000990D8C818F5F8C83DF91CF910895CF93D6
:101B9000DF93EC01E6E1F3E0438162818C810E94F6
:101BA000990D8C818F5F8C83DF91CF9108950F9376
:101BB0001F93CF93DF9300D01F92CDB7DEB78C0178
:101BC0008091100281110AC09E012F5F3F4F4FEF9D
:101BD0006FEF0E94640C8A8180931002F801848167
:101BE000813051F028F0823061F4409110020AC037
:101BF0008091100240E007C06091100240E080E058
:101C000003C040E080E060E00E947E0DF801848126
:101C100090E0019663E070E00E94FF3184830F90B2
:101C20000F900F90DF91CF911F910F9108954F92D8
:101C30005F926F927F928F929F92AF92BF92CF925C
:101C4000DF92EF92FF920F931F93CF93DF9300D019
:101C50001F92CDB7DEB7F82ED62EE42E622E9091CD
:101C6000160390FFC5C0E92FE695AE2FB0E0A3584C
:101C7000BE4F8C91809359029E7F923061F49E01F9
:101C80002F5F3F4F8F2D0E94640C4B8169818A81A9
:101C90000E947E0D62C0823019F4E09019035DC08D
:101CA000863019F4F090170358C08930D9F3893180
:101CB00009F053C0E9518E2F8170782E81E0C72C36
:101CC000C826E695F0E0ED5DF84FA590B490412C64
:101CD000BB2494E7892E93E0992E60912B01461640
:101CE000D0F5042D10E00A9DC0010B9D900D1A9DAA
:101CF000900D112470E00E94EB315F2C711002C036
:101D0000560E01C0561A8091F00280FF11C0BF929A
:101D1000AF921F92CF921F925F921F924F929F920B
:101D20008F920E9412060FB6F894DEBF0FBECDBF91
:101D300080912901080F111D9801220F331F020FF6
:101D4000131F9801255E3C4F4E2D6D2D852D0E9451
:101D5000640C4394C2CF0E945A0D80911703F8126D
:101D600008C080911803D81204C080911903E816A6
:101D700029F080915B02826080935B02F0921703EE
:101D8000D0921803E09219036620E9F060911603DF
:101D90007091170380911803909119030E94890C88
:101DA0008091F00280FF24C0809119031F928F93CD
:101DB000809118031F928F93809117031F928F9326
:101DC0008FE493E00CC08091F00280FF11C01F925D
:101DD000EF921F92DF921F92FF9288E293E09F930F
:101DE0008F930E9412060FB6F894DEBF0FBECDBFD0
:101DF0000F900F900F90DF91CF911F910F91FF9057
:101E0000EF90DF90CF90BF90AF909F908F907F909A
:101E10006F905F904F900895E6E1F3E09181282F55
:101E20004381628188E0890F0C94170E81E00C9445
:101E30000C0FE6E1F3E09181282F4381628188EF66
:101E4000890F0C94170E81E00C94190FE6E1F3E072
:101E5000628121E1620F08F46FEF282F43818181B5
:101E60000C94170E81E00C94260FE6E1F3E06281FA
:101E700021E1621B08F460E0282F438181810C94EA
:101E8000170E81E00C94350FE6E1F3E0438121E188
:101E9000420F08F44FEF282F628181810C94170EB6
:101EA00081E00C94440FE6E1F3E0438121E1421B21
:101EB00008F440E0282F628181810C94170E81E0A4
:101EC0000C94530F21E00C94170E20E00C94170E85
:101ED000FF920F931F93CF93DF93EC01F12C0FEF41
:101EE00010E060912B01F616F0F4809129012F2D5E
:101EF00030E0280F311DC901880F991F280F391FA5
:101F0000255E3C4F70E0C8010E94FF31962F8C8106
:101F10004091190360911803F99E800D11240E94CD
:101F2000640CF394DECF0E945A0D9A818C8190FF4D
:101F300002C08F5F01C081508C83DF91CF911F91D0
:101F40000F91FF9008958F929F92AF92BF92CF9280
:101F5000DF92EF92FF920F931F93CF93DF93EC01E9
:101F60008A8180FF03C0BB24BA9402C0BB24B3940F
:101F70008C8181110DC081E0B81206C080912B01C7
:101F800081508093120202C01092120281E08C8371
:101F9000A12C4CE0942E80912B01A81608F044C08F
:101FA00080912901CA2CD12C8601080F111DC8016E
:101FB000880F991F080F191F055E1C4FF801118229
:101FC0001082128234E0E32EF12C812C80911202D7
:101FD000880D8D302CF0692D0E94DD31892F05C0D0
:101FE00087FF03C090912B01890F082E000C990BDD
:101FF000C816D90691F4809119038E9DA0018F9D7A
:10200000500D112455954795559547959801609128
:102010001803809117030E94640C8B0CF1E0EF1AF7
:10202000F108A1F6A394B7CF0E945A0D8091120235
:1020300091E0B9120EC0811107C080912B0181502F
:10204000809312021C820FC0815080931202BC82C6
:102050000AC090E0019660912B0170E00E94FF3170
:10206000809312028C83DF91CF911F910F91FF908B
:10207000EF90DF90CF90BF90AF909F908F9008959A
:102080001F93CF93DF93EC018C81811109C081E014
:102090008C831092110292E0909326018093250187
:1020A0008091290190912A01891770F4E82FF0E0BE
:1020B0009F01220F331FE20FF31FE55EFC4F1182D9
:1020C000108212828F5FF0CF10E060912B01161703
:1020D000C0F5E12FF0E070E0CF010E94FF312091C8
:1020E0002901820F20911102022E000C330B90E087
:1020F000E217F307CCF020912601022E000C330BDF
:102100002E173F078CF09C01220F331F820F931F65
:102110009C01255E3C4F409119036091180380910A
:1021200017030E94640C0BC0FC01EE0FFF1F8E0F03
:102130009F1FFC01E55EFC4F1182108212821F5F1F
:10214000C4CF0E945A0D8091250120911102280FC1
:102150002093110290912601980F90932601191651
:102160005CF4022E000C330B40912B0150E04150E7
:1021700051092417350734F081958093250181306A
:1021800009F41C82DF91CF911F9108950F931F9343
:10219000CF93DF938C01FC0184819581019681703E
:1021A000992795838483C0E0D5E580912B01C817DA
:1021B00000F5809129012C2F30E0280F311DC90135
:1021C000880F991F280F391F255E3C4F4C2F4695CD
:1021D000F80184819581840F911D817040911903CC
:1021E000609118038D9F802D11240E94640CCF5F95
:1021F000DCCFDF91CF911F910F910C945A0D0F936B
:102200001F93CF93DF93EC0100E010E080912B014E
:10221000282F30E00217130724F590912901980127
:10222000290F311DA901440F551F240F351F255EAD
:102230003C4F869590E04C81081719071CF4442305
:1022400031F002C0411103C04091190301C040E0C8
:1022500060911803809117030E94640C0F5F1F4F59
:10226000D5CF0E945A0D8C8190E0019681709927FC
:102270008C83DF91CF911F910F9108958F929F9240
:10228000AF92BF92CF92DF92EF92FF920F931F9384
:10229000CF93DF93FC01B280948081E0848300E0DF
:1022A00015E05BE4A52E88248394EE24EA94F12CB7
:1022B0007BE4C72ED12C80912B01081708F08FC02A
:1022C000C02FD0E01C9FF0011D9FF00D1124EA5E8D
:1022D000FD4F911003C01382128267C02381222315
:1022E00089F1215023833481332319F09A2D921BD5
:1022F00001C0922F809119031C9FF0011D9FF00DCA
:102300001124EA5EFD4F899FC0011124B6010E948D
:10231000EB316283211104C0332311F01482A382B4
:1023200022E02B1508F441C01C9FF0011D9FF00D09
:102330001124EA5EFD4F809117038083809118037A
:10234000818333C00E94A1328230914074F582E0D3
:102350008B1530F40E94A132B7010E94FF3102C0F8
:10236000809117031C9FF0011D9FF00D1124EA5E60
:10237000FD4F808322E02B1558F40E94A13220915A
:1023800018032695622F70E00E94FF31820F02C071
:10239000809118031C9FF0011D9FF00D1124EA5E2F
:1023A000FD4F81831282A3828482809129019E0144
:1023B000280F311DC901880F991F280F391F255E6D
:1023C0003C4F1C9FF0011D9FF00D1124EA5EFD4F54
:1023D0004281618180810E94640C0F5F6CCFDF912C
:1023E000CF911F910F91FF90EF90DF90CF90BF9012
:1023F000AF909F908F900C945A0D80915B0208953E
:1024000010925B02089525E0E6E1F3E0DC01019023
:102410000D922A95E1F72091590230915A0240918C
:102420005B02FC012583368347830895E9E5F2E0EA
:10243000118282818460828308956091160366957B
:1024400070E04BE050E08CE291E00E94B132892BC9
:1024500019F481E080935A020E94C229909353029A
:102460008093520280915B02846080935B02809132
:10247000F00280FF08C08FE093E09F938F930E944B
:1024800012060F900F90089510925A0280915B02ED
:10249000846080935B028091F00280FF08C086EF29
:1024A00092E09F938F930E9412060F900F900895D1
:1024B0009091160390FF59C09170811102C09260F3
:1024C00006C08B3210F0946502C0880F982B909351
:1024D000160380915B02816080935B026623B1F0FA
:1024E000609116037091170380911803909119035E
:1024F0000E94890C8091F00280FF1BC0809116031E
:1025000086951F928F9389E994E00BC08091F00229
:1025100080FF0FC08091160386951F928F938BE7E3
:1025200094E09F938F930E9412060F900F900F904C
:102530000F9060911603669570E04BE050E08CE2DE
:1025400091E00E94B132892B19F00E94441202C01E
:102550000E941D1281E08093550240911903609101
:102560001803809117030C94650F0895682F9091BC
:102570001603969581E0890F8B3208F081E00C9468
:10258000581281E00C94B612682F9091160396951C
:102590008FEF890F09F48AE20C94581281E00C94B1
:1025A000C41261E00C9458128091160381608093EC
:1025B00016038091F00280FF0DC01F9281E08F937F
:1025C0008DE094E09F938F930E9412060F900F90DE
:1025D0000F900F908091160386950C94D11260E0B5
:1025E0000C94581280915802811165C08091F002BC
:1025F00080FF08C08CE395E09F938F930E941206A2
:102600000F900F908091F00280FF08C086E295E065
:102610009F938F930E9412060F900F900E943E2866
:10262000811110C08091F00280FF08C08EEF94E00D
:102630009F938F930E9412060F900F900E94E028A4
:102640000E949B0C0E94850C6093160370931703E5
:10265000809318039093190380915B0283608093A9
:102660005B026E7FC1F48091F00280FF08C085EBB1
:1026700094E09F938F930E9412060F900F900E94F8
:102680009B0C0E94850C6093160370931703809334
:102690001803909319030E94720C0E94B20C0E94BE
:1026A00016128091160380FF03C086950E94EF12D8
:1026B00081E0809358020895809116038E7F809365
:1026C000160360911603709117038091180390917F
:1026D00019030E94890C8091F00280FF0FC0809145
:1026E000160381701F928F9385ED93E09F938F93D4
:1026F0000E9412060F900F900F900F900E944412AC
:1027000080915B02816080935B022FEF80E792E013
:10271000215080409040E1F700C000000C945A0D19
:102720008091F00280FF10C0809116038095817027
:102730001F928F9384E494E09F938F930E941206DC
:102740000F900F900F900F908091160380FD0C94C6
:102750005C130C94D412809116038E7F8093160321
:102760008091F00280FF0CC01F921F928BE993E0D2
:102770009F938F930E9412060F900F900F900F90CF
:102780000E94441280915B02816080935B022FEF74
:1027900080E792E0215080409040E1F700C00000C7
:1027A0000C945A0D1F93CF93DF93EC01162F8F815A
:1027B00080FF0FC0888180FF0AC08091160381606E
:1027C00080931603888186950E94581202C00E9449
:1027D000AB138F8181FF06C0212F4B816A818981D4
:1027E0000E94170E8F8182FF08C08E81882319F006
:1027F0000E941D1202C00E9444128F8183FF03C0F9
:1028000081E080935502DF91CF911F910895EF925F
:10281000FF920F931F93CF93DF9380915A028823E7
:1028200009F4CEC080915902E0911603E695E81BA9
:10283000E0935402823049F4F0E0E15EF94FE49114
:10284000CE2FD0E003EB1DE059C0863049F4F0E014
:10285000E45EF94FE491CE2FD0E007EC1DE04EC0CE
:10286000893051F4E695F0E0E75EF94FE491CE2F20
:10287000D0E008E61FE042C08F3051F4E695F0E06A
:10288000EA5EF94FE491CE2FD0E003EA1FE036C0B4
:10289000853149F4F0E0ED5EF94FE491CE2FD0E0C0
:1028A00000E410E12BC08831D9F0833239F4E1E142
:1028B000F6E0C591D49107ED1DE020C08432A9F067
:1028C0008532C1F48E2F63E00E94D131E92FF0E010
:1028D000E25FF94FE491CE2FD0E00EE311E10EC09C
:1028E000C8EED3E006EC10E109C0C4EFD1E00FEF71
:1028F00010E104C0C0EDD7E00EE51CE08091550268
:10290000882389F0109255020E94C2299E012095C9
:102910003095820F931F909353028093520210922E
:1029200057021092560280915202909153020E94D7
:10293000CE298C179D0708F443C080911502882387
:1029400011F11092150280911302909114020E94CD
:10295000CE2980339547B8F00E94C2299093140283
:10296000809313028091F00280FF08C08DEC92E00A
:102970009F938F930E9412060F900F9080915B029D
:10298000886080935B02E0905602F0905702E091DD
:102990005202F0915302CE0FDF1FD0935302C09327
:1029A000520282E592E0F8010995809156029091D9
:1029B0005702892B29F4EF2819F081E08093150242
:1029C000DF91CF911F910F91FF90EF900895882391
:1029D00011F0FA0101C0FB010994CF93DF93C82FD6
:1029E000D62F0E942D0D8C1740F00E942D0D8D17B3
:1029F00020F4DF91CF910C94C1128C2FDF91CF91F5
:102A00000C94D1121F93CF93DF93FB01128111110C
:102A100063C0EC010E9476278272FE01E25CFC45F5
:102A2000E431F10508F057C0EA5AFF4F0C943532F3
:102A30000E94901351C04EEC52E161EC72E104C06F
:102A400041EC52E16EEC72E10E94E71445C043E2B2
:102A50005FE066E17FE0F8CF46E15FE063E27FE0C0
:102A6000F3CF41E45FE062E37FE0EECF42E35FE07B
:102A700061E47FE0E9CF4FE55FE060E57FE0E4CF30
:102A800040E55FE06FE57FE0DFCF46E45DE065E3D2
:102A90007DE0DACF45E35DE066E47DE0D5CF81E01F
:102AA00017C065E082E010C068E086E00DC06EE00F
:102AB00089E00AC064E18FE007C067E185E104C0F6
:102AC00088E106C062E289E10E94ED1405C083E25C
:102AD0000E94D11201C011E0812FDF91CF911F918F
:102AE000089580913F038170089580913F038695FA
:102AF0008695869508950E943E28811102C00E9405
:102B0000E0280E946F2880933F03282F2695269562
:102B1000269530E02630310524F087708862809356
:102B20003F0380913F0380FF04C08695869586957C
:102B300001C080E00C94F61620913F03822F869509
:102B400086958695482F50E04530510554F48F5FA7
:102B5000982F990F990F990F822F8770892B809347
:102B60003F0380913F03816080933F030E9473285D
:102B70008091F00280FF11C080913F038695869579
:102B800086951F928F938FE897E09F938F930E9473
:102B900012060F900F900F900F9080913F03869533
:102BA000869586950C94F61680913F03982F9695FE
:102BB00096959695A1F0915E990F990F990F877050
:102BC000892B80933F03887F91E009F490E0809106
:102BD0003F0390FB80F980933F030E94732880910C
:102BE000F00280FF11C080913F03869586958695FF
:102BF0001F928F9387E797E09F938F930E9412060F
:102C00000F900F900F900F9080913F0386958695BF
:102C100086950C94F61680913F0380FD1FC081605D
:102C200080933F03813019F489E080933F038091C2
:102C30003F030E9473288091F00280FF08C08FE458
:102C400097E09F938F930E9412060F900F908091B0
:102C50003F038695869586950C94F6160895809187
:102C60003F0380FF14C08E7F80933F030E94732830
:102C70008091F00280FF08C08CE397E09F938F93D0
:102C80000E9412060F900F9080E00C94F6160895A3
:102C9000CF93C0913F03C1708091F00280FF0CC0C0
:102CA0001F92CF9381E697E09F938F930E94120625
:102CB0000F900F900F900F90CC2319F0CF910C94A0
:102CC0002F16CF910C940B1690913F03892F869568
:102CD000869586958F5F8F719770863038F4880F50
:102CE000880F880F892B80933F0302C090933F0386
:102CF00080913F03887F91E009F490E080913F0349
:102D000090FB80F980933F030E9473288091F0022A
:102D100080FF11C080913F038695869586951F920E
:102D20008F9388E297E09F938F930E9412060F90F3
:102D30000F900F900F9080913F0386958695869512
:102D40000C94F616863008F085E090913F0397705A
:102D5000282F220F220F220F922B90933F03987F50
:102D600021E009F420E090913F0320FB90F990933B
:102D70003F030C94F6160E94A21680913F030C9418
:102D800073289C01FB018281882349F12D3BFCE5DE
:102D90003F07C9F040F42B3BECE53E0769F02C3BC4
:102DA0003C4561F008952F3B9CE5390791F070F0A8
:102DB000203C3C4589F0089585E001C080E00E94F8
:102DC000BB1680E008950E94D415FBCF0E949C158D
:102DD000F8CF0E944816F5CF0E946416F2CF81E02A
:102DE0000895259A2D9808952D980895CF92DF92F1
:102DF000EF92FF92CF93C82F863050F4811109C013
:102E0000809180008F77809380000E94F41606C026
:102E1000C5E0809180008068809380002C2F30E096
:102E2000AFEFBFEF0E943B3225E030E040E050E0E2
:102E30000E941332C9012C3764E1360728F469E097
:102E400070E00E94EB3129C0DA01C9018A50974D28
:102E5000AF4FBF4F6627782F892F9A2F25EF38E283
:102E600041E050E00E94133269017A01CA01B901C0
:102E70000E94C1319B01AC01C701B6010E94C13162
:102E8000BB27A92F982F872F009721E0A207B10514
:102E900011F0BC0102C06FEF7FEF70938900609367
:102EA0008800CF91FF90EF90DF90CF900895089524
:102EB0000E94F11682E88093800089E1809381006E
:102EC0008FEF9FEF90938700809386000C947B1583
:102ED000569A2BB12F7B3BB130644FB7F894FC016D
:102EE000CB01880F991F680F791F6E0F7F1FE617A0
:102EF000F70789F0819198E03BB9000000C087FF97
:102F00002BB9880F000000C000C000C02BB900C062
:102F10009A9591F7ECCF4FBF8FE594E00197F1F7C9
:102F200000C00000089508950C9493178091140137
:102F3000882309F447C020913801A22FA295AF70D1
:102F4000B0E091963C9191972F7081E090E0AC01B8
:102F5000022E01C0440F0A94EAF7542F50953523EE
:102F600091963C93919792963C919297432B92968F
:102F70004C93929740913701E42FE295EF70F0E087
:102F800031A14F70042E01C0880F0A94EAF7982FE0
:102F90009095932391A392A1892B82A390968C91D3
:102FA00090E002C0959587952A95E2F7817020A15F
:102FB00030E002C0359527954A95E2F720FD09C01B
:102FC00090E008C087EF8093380186EF8093370147
:102FD000B2CF92E0892B809361029091140181E03D
:102FE000982790935D02891B80935C020895CF938C
:102FF000E09161025E2F550F550F20913801E22FAD
:10300000E295EF70F0E080A190E02F7002C09595FE
:1030100087952A95E2F78170992740913701E42F2F
:10302000E295EF70F0E020A130E04F7002C03595DE
:1030300027954A95E2F7F901E170FF2720FF02C0CA
:10304000E2E0F0E0E82BF92BE52BE0936102C09180
:103050005D02EF70F0E0E855FE4F908180916002D4
:10306000890F8093600284306CF0EC2F0C2E000CE2
:10307000FF0BE25AFD4F80818F5F808360E08C2FD1
:103080000E949417809160028D3F6CF4EC2F0C2EFF
:10309000000CFF0BE25AFD4F80818150808361E07C
:1030A0008C2F0E94941780916002837887FF03C061
:1030B00081508C6F8F5F80936002CF910895E09173
:1030C0005D02F0E0E25AFD4F2081FC01208308956B
:1030D000FF920F931F93CF93DF93D0915C020D2F3C
:1030E00010E0025A1D4FFC01C081F8018081C81B0D
:1030F000FC2E1F1454F4FA94F80180818F5F8083B2
:1031000060E08D2F0E949417F4CF8C2FC7FD80E0D4
:10311000C81BCC2351F0CF5FF801808181508083A0
:1031200061E08D2F0E949417F4CFDF91CF911F9112
:103130000F91FF9008950F931F93CF93DF93C62FA6
:10314000D42F122FFC0182818823C9F0609364027E
:103150000E94C229909363028093620280E28C0FE6
:10316000883008F057C0C77081E001C0880FCA9549
:10317000EAF7DF91CF911F910F910C94271F809157
:103180006402681330C080916202909163020E94D1
:10319000CE29883C910538F500E20D0FCD17B9F026
:1031A00080E28C0F883040F4C77081E001C0880F46
:1031B000CA95EAF70E942E1F083028F581E09D2F5E
:1031C000977001C0880F9A95EAF70E94271F812FF8
:1031D0000E94141F0830F0F4D77081E001C0880FFE
:1031E000DA95EAF70AC080E28C0F883098F4C7704D
:1031F00081E001C0880FCA95EAF7DF91CF911F9156
:103200000F910C942E1F812FDF91CF911F910F9161
:103210000C94141FDF91CF911F910F9108959C0181
:10322000CB01233F4CE53407F9F078F4283DFCE569
:103230003F07B9F0293D4CE5340711F1273D3C45E6
:1032400031F526E241EE61EE1EC0253FFCE53F0769
:1032500099F070F0263F3C45D1F427E245EE66EE4A
:1032600012C027E245EE0EC026E241EE60EE0BC032
:1032700027E245EE64EE07C026E241EE62EE03C0AF
:1032800028E241E065EE0E949B1880E00895FC0171
:103290008281882319F010926402089581E00895D4
:1032A000CF93DF93EC01FB018281882309F41FC1D6
:1032B000C230FCE5DF0708F41BC1C6319CE5D90725
:1032C00038F09E012A5F3C452930310508F010C1D5
:1032D0000E9451289093450380934403C031ECE54C
:1032E000DE0709F4C3C008F041C0C8308CE5D80738
:1032F00009F49AC0F0F4C430ECE5DE0709F487C0A5
:1033000068F4C2308CE5D80709F477C0C330DC45D7
:1033100009F0E3C080914403826076C0C630ECE5DA
:10332000DE0709F46EC008F07BC08091440388601A
:103330006BC0CC308CE5D80709F485C068F4CA307E
:10334000ECE5DE0709F474C008F079C00E94A821FA
:1033500080914403806858C0CE308CE5D80709F4CA
:1033600076C008F07FC0809144038BC0CB3FECE572
:10337000DE0709F44FC018F5C3318CE5D80709F40E
:103380007DC078F4C131ECE5DE0709F473C0C231C9
:10339000DC4509F0A2C00E94A821809144038F77E8
:1033A00033C0C5318CE5D80709F472C008F486C073
:1033B000CA3FDC4509F091C0809145033EC0CF3F34
:1033C000FCE5DF0709F45FC058F4CD3F9CE5D90761
:1033D00009F444C008F43FC08091450382602DC0C9
:1033E000C130FDE5DF0709F475C008F45DC0C230E7
:1033F000DD4509F072C080E06EC0809144038160B9
:1034000003C08091440380618093440366C080912F
:10341000440311C0809145038260809345035DC0E1
:10342000809144038062F0CF809144038064ECCFAC
:103430008091440388608460E7CF8160EECF809103
:1034400044038E7FE1CF809144038D7FDDCF809157
:103450004403877FD9CF8091450318C080914503ED
:103460008D7FDBCF809144038F7ECECF809144034C
:103470008F7DCACF809144038F7BC6CF8091440358
:10348000877F8B7FC1CF809145038D7F8E7FC5CF96
:103490008091440382FB222720F991E0922790FB40
:1034A00082F990FB83F9B0CF80914503982F9095D6
:1034B00091708E7F892B90FB81F9AFCF0E94A8215C
:1034C0008091440387FB222720F991E0922790FB0B
:1034D00087F99ACF81E00E94E2288091440390917D
:1034E00045030E9462280E94A82180E001C081E07B
:1034F000DF91CF910895CF93DF9386319C4541F5BD
:10350000EB010E947627982F8A8120913901309112
:103510003A01882379F09A7A81E009F480E0809377
:103520006502911102C069E201C065E3C9010E9410
:1035300029290AC080916502811102C069E201C097
:1035400065E3C9010E942B290E94C42780E001C0C5
:1035500081E0DF91CF9108958EE1489B02C08150B8
:10356000E1F7489BFECF0895589880E28A95F1F7DD
:10357000589A0895FC012AE02A95F1F790E020E09E
:1035800080E031E0261779F040E14A95F1F7880FA5
:10359000489B02C08160932700C0000040E14A952B
:1035A000F1F72F5FEFCF20E12A95F1F729B100C0A5
:1035B000000030E13A95F1F7217092272081920FB7
:1035C00090830895EF92FF920F931F93CF93DF9311
:1035D0001F92CDB7DEB719828C017C01E60EF11C7B
:1035E0000E151F0559F00E94AC1A68E0CE01019635
:1035F0000E94BA1AF80181938F01F2CF81E099817C
:10360000911180E00F90DF91CF911F910F91FF906A
:10361000EF9008959093680280936702609366022A
:10362000509A589A08959093680280936702609325
:1036300066025098589AE89AE9E6F0E080818C7F1B
:1036400080830895615091E001C0990F6A95EAF76F
:1036500020E031E0992361F0492F482319F0589A6E
:10366000232701C0589840E24A95F1F79695F2CF8A
:10367000222311F0589A01C0589880E28A95F1F7F8
:1036800058980895FF920F931F93CF93DF93EC0107
:103690008C01060F111DC017D10741F0F9900E944F
:1036A000B41A68E08F2D0E94221BF5CFDF91CF91D5
:1036B0001F910F91FF9008951F920F920FB60F92D6
:1036C00011240F931F932F933F934F935F936F9307
:1036D0007F938F939F93AF93BF93EF93FF93CF937A
:1036E000DF931F92CDB7DEB719820E94AC1A67E054
:1036F000CE0101960E94BA1A382F36953695369526
:10370000932F96959570232F2570920F292F237054
:10371000969596958770920F891348C0898181117B
:1037200045C080916602831708F440C080E18A9505
:10373000F1F7589A509AA2E0AA95F1F700C00091CB
:10374000670210916802B8E03B9F000D111D112423
:103750005898F8016581662321F0868197810E943F
:10376000421B0E94B41AF0E1FA95F1F7589850986C
:10377000589A80E18A95F1F7D80112966C911297C8
:10378000662369F013968D919C9114970E94E21A1A
:10379000D801ED91FC91811105C082E004C0D801EF
:1037A000ED91FC9188E080830E94AC1A0F90DF912C
:1037B000CF91FF91EF91BF91AF919F918F917F91A9
:1037C0006F915F914F913F912F911F910F910F90AA
:1037D0000FBE0F901F9018950F931F93CF93DF93F9
:1037E0002091660230E0281739070CF471C09C0163
:1037F00093E0220F331F9A95E1F7C0916702D091B1
:103800006802C20FD31FF894509A589845E04A9521
:10381000F1F70000982F969595708570890F982F75
:10382000937086958695890F8901082B0E94B41A9A
:1038300084E08A95F1F700C067E0802F0E94221B88
:1038400040E14A95F1F75098589A489902C000C053
:10385000FCCF87E090E0489B0EC0019751F4509A4E
:10386000589AE881F98181E08083789481E090E042
:1038700031C000C0F0CF6D81662381F08E819F81C1
:103880000E94E21A81110AC0509A589AE881F9817F
:1038900082E08083789482E090E01CC00E94AC1AA1
:1038A00080E28A95F1F75898509A40E14A95F1F7ED
:1038B0006A81662321F08B819C810E94421B0E94B9
:1038C000B41AE881F9811082789480E090E002C017
:1038D00084E090E0DF91CF911F910F910895909334
:1038E0006E0280936D020895E0916D02F0916E0278
:1038F000309721F00190F081E02D099480E0089547
:10390000EF92FF920F931F93CF93DF93E0916D029D
:10391000F0916E023097B1F18C010280F381E02DBD
:1039200009958091F00282FF2DC080FF04C08FEACC
:1039300098E00E947905E80118E089EAE82E88E01D
:10394000F82E8091F00280FF0BC088811F928F9328
:10395000FF92EF920E9412060F900F900F900F901F
:10396000115021961111EDCF8091F00280FF0AC015
:1039700087EA98E0DF91CF911F910F91FF90EF9030
:103980000C947905DF91CF911F910F91FF90EF90EB
:10399000089520916B0230916C022817390771F05D
:1039A00090936C0280936B02E0916D02F0916E0235
:1039B000309721F00680F781E02D09940895209139
:1039C000690230916A022817390771F090936A02F0
:1039D00080936902E0916D02F0916E02309721F0C0
:1039E0000084F185E02D0994089585B7806885BF2E
:1039F00085B7806885BF089508950C94FC1C0C94CD
:103A0000FD1C0C94FC1C0C94FC1C0E94F51C0E94D8
:103A1000011D0C94FF1C0C94280B0E94B9290E94D4
:103A200075090E94272A0E947B150E94F2120E94AB
:103A300096170C94031DCF93C82F8091F00282FF3C
:103A40001EC080FF04C088EC98E00E947905809138
:103A5000F00280FF0CC01F92CF9383EC98E09F93FD
:103A60008F930E9412060F900F900F900F908091ED
:103A7000F00280FF04C081EC98E00E9479058C2F51
:103A8000CF910C949406AF92BF92CF92DF92EF92B7
:103A9000FF920F931F93CF93DF93CDB7DEB72A9793
:103AA0000FB6F894DEBF0FBECDBF0E94470A0E943A
:103AB0000B1D811111C08FEF89838A831B820E94A5
:103AC000C2298160782F9D838C8349815A816B81C3
:103AD0008D810E94DF1D40C080E7A82E82E0B82EB5
:103AE00000E010E0C02E802F0E941B09E82EF50197
:103AF000D1905F01D82631F40F5F1F4F0A301105B6
:103B000089F7D9CF8091F00281FD0E94210980E0E0
:103B1000FF24F3949D2D9F21D1F08E83CF82EF203F
:103B200081E009F480E088870E94C2298160782FB3
:103B30009A8789874E815F8168858A850E94DF1D0B
:103B4000F801E059FD4F8081F826F08205C08F5FB3
:103B5000FF0C8630F9F6D0CF0E9407140E94571749
:103B60000E94F7170E94741C90916F028917B1F0A0
:103B70000E94741C80936F022A960FB6F894DEBFE1
:103B80000FBECDBFDF91CF911F910F91FF90EF90AE
:103B9000DF90CF90BF90AF900C941B1D2A960FB66C
:103BA000F894DEBF0FBECDBFDF91CF911F910F9173
:103BB000FF90EF90DF90CF90BF90AF900895CF939C
:103BC000DF93CDB7DEB72B970FB6F894DEBF0FBEED
:103BD000CDBF4F83588769877A878B87DE0111961F
:103BE00086E0FD0111928A95E9F785E0FE0137969E
:103BF00001900D928A95E1F749815A816B817C8110
:103C00008D819E810E9461242B960FB6F894DEBFB1
:103C10000FBECDBFDF91CF910895FC0180819181CE
:103C20000E9437270895CF93882309F49CC0C82F9A
:103C30008238C1F40E94741C81FD95C069E38091B3
:103C4000390190913A010E9429290E94C4272FEF3F
:103C500081EE94E0215080409040E1F700C00000E8
:103C600069E319C0833801F50E94741C80FD7BC094
:103C700063E58091390190913A010E9429290E94BF
:103C8000C4272FEF81EE94E0215080409040E1F76F
:103C900000C0000063E58091390190913A010E94D3
:103CA0002B29CF910C94C4278438C1F40E94741C32
:103CB00082FD59C067E48091390190913A010E94D8
:103CC00029290E94C4272FEF81EE94E021508040E3
:103CD0009040E1F700C0000067E4DDCF8CEF8C0F6F
:103CE000813AD0F46C2F8091390190913A010E9471
:103CF000F328882349F06C2F8091390190913A0183
:103D00000E942B290E94C4276C2F80913901909129
:103D10003A010E942929C5CF80E28C0F883048F4EF
:103D2000C77081E001C0880FCA95EAF70E94792721
:103D3000B8CFEBE5EC0FE33040F4F0E0EA51FE4F92
:103D4000808190E0CF910C94C91CC85AC73158F4B7
:103D5000EC2FF0E0EE0FFF1FE854FE4F80819181C1
:103D6000CF910C94DF1CCF910895882309F45BC098
:103D7000682F823879F40E94741C81FF54C069E373
:103D80008091390190913A010E9429290E94C4270B
:103D900069E310C08338B1F40E94741C80FF43C0F3
:103DA00063E58091390190913A010E9429290E948E
:103DB000C42763E58091390190913A010E942B2933
:103DC0000C94C427843879F40E94741C82FF2BC0A1
:103DD00067E48091390190913A010E9429290E945B
:103DE000C42767E4E7CF8CEF860F813A18F380E2AF
:103DF000860F883048F4677081E001C0880F6A95AB
:103E0000EAF70E947F27DCCF8BE5860F833020F412
:103E100080E090E00C94C91C685A673120F480E07F
:103E200090E00C94DF1C0895CF93C82F0E94131EBE
:103E3000C93349F42FEF87EE93E021508040904042
:103E4000E1F700C000008C2FCF910C94B51E8823A1
:103E500021F00E9479270C94C4270895882321F02B
:103E60000E947F270C94C4270895CF92DF92EF928F
:103E7000FF920F931F93CF93DF937C01062FC72FE1
:103E8000FC01158112951F70D281D1110E949627D5
:103E90000E946F27882399F0DD2389F08C2F807F83
:103EA000803421F080E2800F883048F082E00E9468
:103EB0000E280E946F2791E0D82ED92601C0D12C60
:103EC000CC2EC2948FE0C8228C2D90E0FC01E659E4
:103ED000FF4F0C9435328C2F807FCF70882311F0E8
:103EE000C295C07FDD2399F0CC2309F482C180E222
:103EF000800F883010F0011104C08C2F0E947927A8
:103F000003C08C2F0E9489270E94C42772C1802F72
:103F10000E94B51ECC2309F491C180E2800F883045
:103F200010F0011104C08C2F0E947F2703C08C2F3A
:103F30000E948F270E94C42781C18C2F807FCF7061
:103F4000803211F0C295C07F002319F00130C9F012
:103F500022C0DD2371F0112341F0113031F40E94B1
:103F6000A9278C2B0E94B12769C10E94A9278C2BFD
:103F70001DC0112319F0113009F460C10E94BA2745
:103F800025C0DD2321F0163008F058C10EC01530D1
:103F900008F054C11BC0DD2361F0112331F0F7019B
:103FA000858180FF26C18F7085838C2F0E94271FFB
:103FB00045C1112359F0093309F02CC1FFEF27EE59
:103FC00083E0F15020408040E1F722C18C2F0E9415
:103FD0002E1F34C18C2F86958695837019F0813001
:103FE00061F02CC1DD2321F0802F9C2F937002C043
:103FF00080E090E00E94C91C29C1DD2321F0802FC0
:104000009C2F937002C080E090E00E94DF1C1EC1D4
:104010008C2F837009F045C0D11114C1402F4295F7
:1040200046954770440F440F602F6F70862F90E0C5
:10403000A0E0B0E0042E04C0880F991FAA1FBB1F88
:104040000A94D2F704FF10C00FE010E020E030E047
:1040500004C0000F111F221F331F4A95D2F700958D
:1040600010952095309503C000E010E09801C695AA
:10407000C695C370BC01CD01602B712B822B932B95
:10408000C23049F058F4C13019F00E94B225DAC0AC
:104090000E94A025D7C00E94C425D4C00E949E259E
:1040A000D1C0DD2319F08C2F817001C08695882343
:1040B00009F4C8C0402F429546954770440F440FFD
:1040C000602F6F70862F90E0A0E0B0E0042E04C057
:1040D000880F991FAA1FBB1F0A94D2F704FF10C0B4
:1040E0000FE010E020E030E004C0000F111F221F9D
:1040F000331F4A95D2F7009510952095309503C04F
:1041000000E010E09801C695C695C370BC01CD01D2
:10411000602B712B822B932BC23049F058F4C130A5
:1041200019F00E9477268EC00E9465268BC00E94DF
:10413000892688C00E94D82585C0CF70DD2339F03C
:104140008C2F0E94FE25802F0E94271F7BC0802F6E
:104150000E942E1F8C2F0E941F2674C0023F01F167
:1041600028F4003F41F0013FA1F03FC0033FF9F0C8
:10417000043F39F13AC0DD2341F0153008F05EC04C
:104180008C2F8F710E94442659C0163008F056C0FB
:10419000F7CFDD2339F08C2F8F710E94FE254EC0A2
:1041A000DD23C9F38C2F8F710E941F2647C0DD23AA
:1041B00029F08C2F8F710E94E92540C00E94E425D0
:1041C0003DC0DD2349F0CF718C2F0E94FE2563E0B6
:1041D0008C2F0E94F92732C081E00E940E281230F5
:1041E00068F182E00E940E2829C0DD2331F01123FE
:1041F00091F2802F0E94131E21C0112399F20933DE
:1042000049F49FEFE7EEF3E09150E040F040E1F732
:1042100000C00000802F0E94B51E10C04C2F4F70B0
:10422000602FC7010E9413070E940F250FC04C2F5B
:104230004F70602FC7010E94160708C088EF8C0DD1
:10424000843020F40E94741C0E949406DD20C9F082
:104250000E946B2780FD15C0F70112820E9465271E
:104260000E94FE25C7010E9462210E946527DF91FE
:10427000CF911F910F91FF90EF90DF90CF900C9412
:104280001F26DF91CF911F910F91FF90EF90DF904C
:10429000CF9008950F931F93CF93DF93EC01688124
:1042A00079818A810E9442278C010E949B260E946C
:1042B0008C25B801CE010E94351FDF91CF911F914F
:1042C0000F910895CF93DF93EC01988189812B8121
:1042D0003C81232B31F08F3F31F481E09F3F19F473
:1042E00003C081E001C080E080FD19C0CE010E94C2
:1042F000AD0681110CC00E946F27882381F08A814E
:10430000882369F082E0DF91CF910C940E28CE01D2
:104310000E944A21CE01DF91CF910C947606DF9165
:10432000CF9108950E9496270E94A6270E94C42735
:1043300080E090E00E94C91C80E090E00C94DF1CBB
:104340008091390190913A010E942D290C9492217B
:104350000E9486270C94A021E92FE295EF704E2F42
:1043600050E0FA013297EE30F105B0F4E658FF4F15
:104370000C943532803F91F018F4883E68F40EC0FA
:10438000843F51F40BC0883E48F0813F29F406C0B9
:1043900093FB882780F9089580E0089581E00895CF
:1043A0000E9437270E94AC210895CF93DF9300D05D
:1043B00000D01F92CDB7DEB70F900F900F900F90E7
:1043C0000F90DF91CF910895CF93DF9300D000D06D
:1043D00000D0CDB7DEB726960FB6F894DEBF0FBE7D
:1043E000CDBFDF91CF9108951F93CF93DF93C091FD
:1043F0007B0216E080917C02C81799F0D0E01C9FE8
:10440000F0011D9FF00D1124E358FD4F40815181B3
:1044100062817381848195810E94E4212196C77015
:10442000E9CFDF91CF911F9108954091AD02509156
:10443000AE026091AF027091B0028091B102909192
:10444000B2020C94E4210F931F93CF93DF938091DA
:10445000B20282958F7009F05DC08091AF0288230F
:1044600009F458C080917B0210917C026091AD02EA
:104470007091AE02C091B002D091B10291E06F3F55
:1044800009F090E0292F06E0811709F443C0209736
:1044900021F07F3F21F030E003C031E001C0322F36
:1044A00090E030FD34C0089FF001099FF00D112409
:1044B000DF01A358BD4F11963C911197371327C0C8
:1044C0003C91361324C012963C91129731111FC0B3
:1044D00013964D915C9114974C1B5D0B483C510514
:1044E000B0F48091B2028F7080618093B202EE5777
:1044F000FD4F80818F70806180838DEA92E00E9401
:104500006221DF91CF911F910F910C94F4210196BC
:104510008770BACFDF91CF911F910F9108959F922D
:10452000AF92BF92CF92DF92EF92FF920F931F93C1
:10453000CF93DF93CDB7DEB761970FB6F894DEBFA8
:104540000FBECDBF8C0185E0F801DE011D96019004
:104550000D928A95E1F7F80140815181E2809091B6
:10456000AD026091AE022091B0023091B1022115EE
:10457000310531F06F3F31F481E09F3F19F403C002
:1045800081E001C080E0F82FF1709F2E80FD46C1D0
:10459000F801A380B4808DEAC82E82E0D82EF09076
:1045A000AF02F501E21BF30BFF2009F4DFC080919D
:1045B000B202E83CF10508F09BC0282F207F09F0EB
:1045C00052C0561313C0491311C0FE2CE1100EC087
:1045D0008F7080618093B2020E941522C6010E94F2
:1045E00062218091B202F801858358C1AB2831F075
:1045F0005F3F31F481E04F3F19F403C081E001C017
:1046000080E080FD03C081E08E2502C080E090E064
:10461000F82FF170FF2E80FF1CC080917B0220914B
:104620007C0236E0821709F417C190E0389FF00150
:10463000399FF00D1124E358FD4F6181561306C0D8
:104640006081461303C06281E61203C00196877041
:10465000E9CFFE2CEE2009F421C18091B2028160E5
:104660008093B2025AC0561306C0491304C0E11029
:1046700002C0F8019FC04D875E878D859E850E9490
:10468000D021882379F1EE2069F12091B202822FA6
:1046900082958F7090E0029774F08091AD029091B6
:1046A000AE0298878F831986BB86AA862C87CE0197
:1046B00007960E94622186E0F801ADEAB2E001901F
:1046C0000D928A95E1F70E9423220E9415220DC0C7
:1046D000561729F14D875E878D859E850E94D021D2
:1046E00081112CC0C8010E946221FF24F394D6C01E
:1046F000282F207F69F77A2DB98AA88A6E2D89899B
:104700000E94D5218DEA92E00E94622186E0F601A6
:1047100011928A95E9F70E941522F12CBFC0491326
:10472000D9CFE110D7CFF8018583C8010E9462215B
:1047300086E0F60111928A95E9F7B0C0EE2091F279
:104740002091B202822F82958F7090E002970CF434
:10475000B2CF8091AD029091AE029A8389831B8281
:10476000BD82AC822E83CE010196A3CFE83CF10539
:1047700008F047C0FE2CEE2009F4B4CF561330C029
:1047800049132EC02091B20220FD21C0822F8295B4
:104790008F70482F50E041155105C9F0F80125836D
:1047A0004F30510541F08F5F982F9295907F822F67
:1047B0008F70892B8583C8010E94622186E0F801F1
:1047C000ADEAB2E001900D928A95E1F742C086E031
:1047D000F801ADEAB2E001900D928A95E1F75EC072
:1047E0004D875E878D859E850E94D021811163CF84
:1047F0008091B20281608093B202C8010E9462215E
:104800004DC07A2DB98AA88A6E2D89890E94D5213A
:1048100086E0F60111928A95E9F71BC0EE2009F4B3
:1048200061CF4D875E878D859E850E94D021F82EB1
:10483000882309F457CF86E0F801ADEAB2E0019091
:104840000D928A95E1F78DEA92E00E940D1E0E947A
:1048500023220E94152222C04D875E878D859E856A
:104860000E943727292F22952F70223028F49F701D
:1048700039F0811105C00BC0243028F49F7049F431
:10488000805E883020F0C8010E9462219F2CF92CA4
:1048900005C0F8019581907F99F7F9CF8F2D61962A
:1048A0000FB6F894DEBF0FBECDBFDF91CF911F9141
:1048B0000F91FF90EF90DF90CF90BF90AF909F90BF
:1048C00008951F93CF93DF93CDB7DEB72C970FB624
:1048D000F894DEBF0FBECDBF4F83588769877A87B4
:1048E0008B879C87CE0107960E948F228823D1F068
:1048F0009F8188852A853B85232B31F08F3F31F4BA
:1049000081E09F3F19F403C081E001C080E080FD99
:1049100047C04F81588569857A858B859C850E9423
:10492000E4213EC086E0FE013796DE01119601903B
:104930000D928A95E1F7FF81E8856A857B8561158F
:10494000710531F0EF3F31F481E0FF3F19F403C00E
:1049500081E001C080E080FD23C020917C0230E036
:10496000C90101968770992740917B0250E0841716
:104970009507F1F1F983EA837D836C8396E0929F3A
:10498000D001939FB00D1124A358BD4FFE01319665
:1049900001900D929A95E1F780937C020E94F42198
:1049A00016E080917B0290917C02891771F1189F2B
:1049B000C001112483589D4F0E948F22882329F122
:1049C000E0917B021E9FF0011124E358FD4F4081CE
:1049D000518162817381848195810E94E42180915B
:1049E0007B0290E001968770992780937B02D9CF54
:1049F0000E94A82110927C0210927B02EDEAF2E064
:104A000086E0DF011D928A95E9F72C960FB6F8949F
:104A1000DEBF0FBECDBFDF91CF911F910895EF9202
:104A2000FF920F931F93CF93DF938C01892B09F48F
:104A30006CC0F12CEE24E394E8012196F8018491F6
:104A4000843740F4843008F051C0813081F08230E6
:104A500019F15BC0853709F444C0A8F19CE7980FB1
:104A6000903708F052C08F770E94B51E41C00E5F8C
:104A70001F4FFE01849190E2980F983050F4877098
:104A8000FE2D01C0FF0F8A95EAF78F2F0E9499270C
:104A900014C00E94131E2DC00E5F1F4FFE01849193
:104AA00090E2980F983060F48770FE2D01C0FF0FE0
:104AB0008A95EAF78F2F0E949F270E94C42719C06A
:104AC0000E94B51E16C00E5F1F4FFE01C491CC237D
:104AD00081F08FE99FE00197F1F700C00000C1501D
:104AE000F6CF0E5F1F4FFE01F49003C00E94131E0D
:104AF0008E018F2D882309F49FCFEFE9FFE03197D6
:104B0000F1F700C000008150F5CFDF91CF911F91E8
:104B10000F91FF90EF900895089508950C948D25BE
:104B20000C948E250E9490256093DF027093E00222
:104B30008093E1029093E2020C9492210C949225CE
:104B40000F931F930091DF021091E0022091E10288
:104B50003091E202602B712B822B932B1F910F91CE
:104B60000C9492250F931F930091DF021091E002A5
:104B70002091E1023091E20260237123822393238A
:104B80001F910F910C9492250F931F930091DF02B8
:104B90001091E0022091E1023091E202602771273A
:104BA000822793271F910F910C9492250C948D25A9
:104BB0000E94D6256093DB027093DC028093DD02B5
:104BC0009093DE020C94922160E070E0CB010C9493
:104BD000D8250F931F9341E050E060E070E08A0118
:104BE0009B0104C0000F111F221F331F8A95D2F7AB
:104BF000C901B8011F910F910C94D8250F931F93F1
:104C000041E050E060E070E004C0440F551F661FB3
:104C1000771F8A95D2F78091DB029091DC02A091F8
:104C2000DD02B091DE028A019B01082B192B2A2B91
:104C30003B2BC901B8011F910F910C94D8250F93FC
:104C40001F9341E050E060E070E004C0440F551F46
:104C5000661F771F8A95D2F740955095609570959D
:104C60008091DB029091DC02A091DD02B091DE0226
:104C70008A019B01082319232A233B23C901B80178
:104C80001F910F910C94D8250F931F9341E050E092
:104C900060E070E004C0440F551F661F771F8A95BF
:104CA000D2F78091DB029091DC02A091DD02B091FD
:104CB000DE028A019B01082719272A273B27C90101
:104CC000B8011F910F910C94D8250F931F93009159
:104CD000DB021091DC022091DD023091DE02602BBC
:104CE000712B822B932B1F910F910C94D8250F932E
:104CF0001F930091DB021091DC022091DD023091C4
:104D0000DE0260237123822393231F910F910C9461
:104D1000D8250F931F930091DB021091DC022091A4
:104D2000DD023091DE0260277127822793271F91D1
:104D30000F910C94D8250895292F220F920F990FC7
:104D4000890FE82FE695E695E695877051E001C05A
:104D5000550F8A95EAF785E0E89FF0011124ED549C
:104D6000FD4F20E030E070E04081CB01022E02C018
:104D7000969587950A94E2F781708195842785231B
:104D8000842781932F5F3F4F2530310569F70895C0
:104D9000292F220F920F990F890F682F669566951C
:104DA0006695982F977085E0689FB001112440E0C8
:104DB00050E080E0FB01E40FF51FED54FD4F208132
:104DC00030E0092E02C0369527950A94E2F721704B
:104DD0003327042E01C0220F0A94EAF7822B4F5F7B
:104DE0005F4F4530510531F70895BF92CF92DF9262
:104DF000EF92FF920F931F93CF93DF938C01C0909C
:104E0000DB02D090DC02E090DD02F090DE028091C7
:104E1000DF029091E002A091E102B091E202C82A83
:104E2000D92AEA2AFB2ACFE1D0E0D701C6010C2E0D
:104E300004C0B695A795979587950A94D2F780FDFB
:104E400004C0219790F7B12C07C0BC2EB8018C2F5D
:104E50000E9432070197A9F38B2DDF91CF911F910B
:104E60000F91FF90EF90DF90CF90BF900895CF9378
:104E7000DF93EC010E94F526BE010E943207DF910C
:104E8000CF9108951F93CF93DF93EB0190917A0216
:104E9000992321F0CB010E94372713C0882349F0C2
:104EA000CB010E94F526182F682FCE010E949C2668
:104EB00004C0CB010E94C826182FBE01812F0E947A
:104EC0003207DF91CF911F9108958091E30285957C
:104ED0008595859508958091E30287700895909156
:104EE000E302977081E009F480E008958091EF0279
:104EF00008959091EF02892B8093EF020895809599
:104F00009091EF0289238093EF0208951092EF02AF
:104F100008959091EE02892B8093EE02089580957A
:104F20009091EE0289238093EE0208951092EE0292
:104F300008959091ED02892B8093ED02089580955C
:104F40009091ED0289238093ED0208951092ED0275
:104F500008958091E402089508950C94AC270C9470
:104F6000AD279091E402981721F08093E4020C940D
:104F7000AF2708958091E402882329F01092E4027B
:104F800080E00C94AF270895E0913901F0913A0147
:104F90008091EF028083E0913901F0913A01908194
:104FA0008091EE02892B8083E0913901F0913A01E2
:104FB00090818091ED02892B80838091E402882387
:104FC00081F0E0913901F0913A019081892B808341
:104FD0008091390190913A010E94E72881110E9445
:104FE000BA278091390190913A010C94801C0C945D
:104FF000AC2798E0899F90011124262B2093E3028F
:105000000E94FE258091E3028595859585950C94F7
:10501000F7271092E30280E00C94F7272091E30237
:10502000809582238093E302982F977079F430E083
:10503000482F082E000C550B2417350739F085959D
:10504000859585950E941F260C94092808959093B4
:10505000F9018093F80108958295982F937344E0A5
:10506000949F900111248C7C86958695282B822F05
:105070008575880F2A7A2695822B089580E090E026
:105080000E94CC3221E08C3E9E4F09F020E0822F1E
:10509000089582E090E00C94BE3283E090E00C949E
:1050A000BE32CF9384E090E00E94BE32C82F81E2EE
:1050B00090E00E94BE322C2F30E0A901582BCA018B
:1050C000CF910895CF93C92F682F84E090E00E947C
:1050D000D2326C2F81E290E0CF910C94D23286E0F4
:1050E00090E00C94BE32682F86E090E00C94D232AF
:1050F000AB01BC018FE090E00C94E432AB01BC0149
:1051000083E190E00C94E43260E070E0CB010C9419
:105110007E286CEE7EEF80E090E00E94F03260E04E
:1051200082E090E00E94D23260E083E090E00E9452
:10513000D2321092DF021092E0021092E10210923D
:10514000E20260E084E090E00E94D23260E081E21E
:1051500090E00E94D23260E085E090E00E94D2327E
:1051600060E086E090E00E94D2326FEF87E090E04E
:105170000E94D23240E050E0BA0188E090E00E9404
:10518000E43260E08DE090E00E94D23240E050E0F6
:10519000BA0188E190E00E94E43260E087E190E0AB
:1051A0000E94D23240E050E0BA018CE190E00E94CF
:1051B000E43260E080E290E00E94D2320C941B0660
:1051C0000C948928682F8EE090E00C94D232FC0178
:1051D000329697E080E0915029F021912223D9F373
:1051E0008F5FF9CF0895662349F0FC013296089647
:1051F0002191621729F0E817F907D1F780E00895A7
:1052000081E008959C01FC0132969FEF80E041917E
:10521000461789F09F3F19F4411101C0982F8F5F05
:105220008630A9F79F3F39F0F901E90FF11D97FD8D
:10523000FA956283089508959C012A5F3F4FFC010F
:105240004281461301C01282019682179307B9F773
:1052500008950C9402290C941C29029626E0FC0166
:1052600011922A95E9F7089508950C9434290C9425
:105270003429CF930E9437290E94470A0E9435297A
:10528000C0E08C2F0E941B09811104C0CF5FCA307F
:10529000C1F701C081E0CF9108950C9434290C949A
:1052A0004D290E944F2980914A03843061F1109268
:1052B000F10220E488E190E00FB6F894A89580937D
:1052C00060000FBE2093600080E00E94F61680E030
:1052D0000E9494060E944F2983B7817F846083BF18
:1052E00083B7816083BF7894889583B78E7F83BFAF
:1052F0000FB6F894A8958091600088618093600053
:10530000109260000FBE08950C9434290E94A821C9
:105310000E947B150E94741C0E9494060C948429A0
:105320001F920F920FB60F9211248F939F93AF93FA
:10533000BF938091F102811113C08091400390913D
:105340004103A0914203B09143034196A11DB11DB9
:105350008093400390934103A0934203B09343038F
:10536000BF91AF919F918F910F900FBE0F901F90A3
:10537000189582E084BD93E095BD9AEF97BD809328
:105380006E0008952FB7F8948091400390914103E7
:10539000A0914203B09143032FBF08959C014FB7E2
:1053A000F8948091400390914103A0914203B09101
:1053B00043034FBF821B930B089578941F920F9263
:1053C0000FB60F9211248F939F93AF93BF93809149
:1053D000400390914103A0914203B0914303019691
:1053E000A11DB11D8093400390934103A0934203FC
:1053F000B0934303BF91AF919F918F910F900FBED8
:105400000F901F90189581E08093E00080E28093D8
:10541000D8001092C9008FE19EE40197F1F700C017
:10542000000087E090EBDC018093530390935403DA
:10543000A0935503B09356039CE088E10FB6F8940F
:10544000A895809360000FBE90936000FFCF0E94EC
:105450003E28811102C00E94E0280E9449288093C2
:10546000F0020E94512890934503809344030E94C8
:105470004D28682F70E080E090E00C949E2580918C
:10548000FD02089508959FB7F8941092F4029FBF0B
:1054900090914A03943009F057C09091E9009F70B1
:1054A0003091EC00232F217030FD20E8922B23E077
:1054B0002093E9002091EB0020FF43C02091EE00F3
:1054C00027FF3FC02091F202222321F02091E80023
:1054D00025FF37C01092F20226E03091E80035FD3A
:1054E00015C030914A03343061F53091EB0035FD41
:1054F00028C0215021F481E08093F20222C0EFE91C
:10550000FFE03197F1F700C00000E7CF8093F10092
:105510008091E80085FD0AC08091E80080FFFCCF03
:105520008091E8008E778093E80006C08FB7F894EA
:1055300021E02093F4028FBF9F709093E90080E0F8
:1055400008959F709093E9008FEF0895CF93DF93B4
:1055500000D01F92CDB7DEB790914A03943019F571
:1055600089837B836A8382E08093E9008FEF909147
:10557000E800815095FD06C095ED9A95F1F7000081
:105580008111F5CF8091E80085FF0DC040E050E02B
:1055900063E070E0CE0101960E94242D8091E80026
:1055A0008E778093E8000F900F900F90DF91CF914E
:1055B0000895CF93DF93EC010E94072D823011F004
:1055C000843031F4BE0184E0DF91CF910C94A62A9F
:1055D000DF91CF910895BC0183E00C94A62ACF936C
:1055E000DF93EC010E94072D823011F0843039F5F1
:1055F00081E08093E9008FEF9091E800815095FD64
:1056000006C095ED9A95F1F700008111F5CF8091D4
:10561000E80085FF14C040E050E068E070E0CE0193
:105620000E94242D8091E8008E778093E80088E026
:10563000FE01A5EFB2E001900D928A95E1F7DF91AE
:10564000CF91089580E099E00E9479058091490307
:10565000811109C00E94B52E0E94122F8091E20094
:1056600084608093E20008958CEF98E00E947905B1
:1056700010924903089588EF98E00C94790584EF1F
:1056800098E00C94790580EF98E00E9479050C94DD
:1056900086292091F3022F5F822F62E30E94D1318D
:1056A000992319F02093F30208951092F302809148
:1056B000F402882371F180914A03843041F580918E
:1056C000E9008F702091EC00922F917020FD90E8FE
:1056D000892B93E09093E9009091EB0090FF14C028
:1056E0009091EE0097FF10C09091E80095FF03C0E5
:1056F0001092F100F9CF9091E80090FF05C09091D1
:10570000E8009E779093E8008F708093E9001092F4
:10571000F402089542E061EC81E00E942E2E42E204
:1057200061EC82E00E942E2E42E261EC83E00C9458
:105730002E2E80914C03833009F460C030F4813008
:1057400071F0823009F499C008958A3009F485C057
:105750008B3009F46BC0893009F0A7C020C080915C
:105760004B03813A09F0A1C08091E800877F8093C4
:10577000E80080914F0390915003892B21F468E059
:1057800085EF92E003C060E080E090E070E00E946E
:105790006F2D8091E8008B778093E80008958091C9
:1057A0004B03813209F081C080914F0390915003E7
:1057B000029708F07AC08091E800877F8093E80024
:1057C0008091E80082FD05C080914A038111F8CFE5
:1057D0006CC02091F3008091F20090E0922B029730
:1057E00029F48091F1008B7F813021F48091F100C8
:1057F0008093FD028091E8008B7753C080914B032A
:10580000813A09F052C080914F0390915003892B47
:1058100009F04BC08091E800877F8093E800809179
:10582000E80080FFFCCF8091450136C080914B039A
:105830008132D9F580914F0390915003892BA9F5BE
:105840008091E800877F8093E8000E94632E80911A
:105850004D03809345010C94A82180914B03813224
:1058600021F58091E800877F8093E8000E94632EF5
:1058700080914E038093FE02089580914B03813AFC
:10588000A1F48091E800877F8093E8008091E80090
:1058900080FFFCCF8091FE028093F1008091E800B0
:1058A0008E778093E8000C94632E089584B7877FE9
:1058B00084BF0FB6F894A8958091600088618093AA
:1058C0006000109260000FBE90E080E80FB6F89480
:1058D00080936100909361000FBE0E94051D0E949D
:1058E000B52E0E94122F8091E20084608093E20026
:1058F00083E49AE20E94272878940E94A6310E94AD
:105900000D1D8BE391E00E946F1C8FED98E00E94CB
:10591000790580914A03853089F48BED98E00E94E7
:1059200079050E94512980914803882391F30E94B0
:105930003929882371F30E940E2DEBCF0E94431D5D
:10594000E8CF0C94A32C292F332723303105C9F03D
:1059500060F42130310581F02230310509F047C073
:105960008BE590E026E439E046C02132310511F1A3
:105970002232310561F13BC082E190E021EA39E059
:105980003AC099278130910561F040F0823091054D
:1059900059F0039761F5E4E0F9E008C0E2E4F9E0CA
:1059A00005C0E2E3F9E002C0EAE0F9E0849190E0AA
:1059B0009F0121C063307105D0F4660F771FFB0192
:1059C000EE50FE4F2081318189E090E014C06330B9
:1059D000710568F4FB01EE0FFF1FE451FE4F2081BB
:1059E0003181FB01E751FE4F808190E004C080E0EF
:1059F00090E020E030E0FA01318320830895809127
:105A00004A03843011F081E0089582E00895809186
:105A1000FF02811102C00C94FF2C089580E189BD22
:105A200082E189BD09B400FEFDCF8091D8008F7D51
:105A30008093D8008091E00082608093E0008091A4
:105A4000E00081FDFCCF0895CF92DF92EF92FF92AC
:105A50000F931F93CF93DF93EC018B017A010E9488
:105A6000822E811133C0E114F10439F0F7018081F5
:105A70009181081B190BC80FD91FC12CD12C0115FE
:105A8000110519F18091E80085FD16C08091E800AC
:105A90008E778093E800E114F10449F0F7018081EA
:105AA0009181C80ED91ED182C08285E00FC00E94AC
:105AB000822E882321F30AC089918093F10001503E
:105AC0001109FFEFCF1ADF0ADACF80E0DF91CF9123
:105AD0001F910F91FF90EF90DF90CF90089520914C
